{
  "_format": "hh-sol-artifact-1",
  "contractName": "CareerBuild",
  "sourceName": "contracts/CareerBuild.sol",
  "abi": [
    {
      "inputs": [],
      "stateMutability": "nonpayable",
      "type": "constructor"
    },
    {
      "anonymous": false,
      "inputs": [
        {
          "indexed": false,
          "internalType": "address",
          "name": "owner",
          "type": "address"
        },
        {
          "indexed": false,
          "internalType": "address",
          "name": "company",
          "type": "address"
        },
        {
          "indexed": false,
          "internalType": "string",
          "name": "message",
          "type": "string"
        }
      ],
      "name": "job",
      "type": "event"
    },
    {
      "inputs": [],
      "name": "accountCounter",
      "outputs": [
        {
          "internalType": "uint256",
          "name": "",
          "type": "uint256"
        }
      ],
      "stateMutability": "view",
      "type": "function"
    },
    {
      "inputs": [],
      "name": "administrator",
      "outputs": [
        {
          "internalType": "address",
          "name": "",
          "type": "address"
        }
      ],
      "stateMutability": "view",
      "type": "function"
    },
    {
      "inputs": [],
      "name": "applicant",
      "outputs": [
        {
          "internalType": "uint256",
          "name": "",
          "type": "uint256"
        }
      ],
      "stateMutability": "view",
      "type": "function"
    },
    {
      "inputs": [
        {
          "internalType": "uint256",
          "name": "_jobId",
          "type": "uint256"
        },
        {
          "internalType": "string",
          "name": "_name",
          "type": "string"
        },
        {
          "internalType": "string",
          "name": "_coverLetter",
          "type": "string"
        },
        {
          "internalType": "string",
          "name": "_resume",
          "type": "string"
        },
        {
          "internalType": "string",
          "name": "_portfolioLink",
          "type": "string"
        },
        {
          "internalType": "address",
          "name": "_owner",
          "type": "address"
        }
      ],
      "name": "applyForJobs",
      "outputs": [
        {
          "internalType": "uint256",
          "name": "",
          "type": "uint256"
        }
      ],
      "stateMutability": "nonpayable",
      "type": "function"
    },
    {
      "inputs": [
        {
          "internalType": "uint256",
          "name": "",
          "type": "uint256"
        }
      ],
      "name": "company",
      "outputs": [
        {
          "internalType": "string",
          "name": "CompanyName",
          "type": "string"
        },
        {
          "internalType": "string",
          "name": "companyImage",
          "type": "string"
        },
        {
          "internalType": "string",
          "name": "Category",
          "type": "string"
        },
        {
          "internalType": "uint256",
          "name": "salary",
          "type": "uint256"
        },
        {
          "internalType": "uint256",
          "name": "timeStamp",
          "type": "uint256"
        },
        {
          "internalType": "uint256",
          "name": "noAppllicant",
          "type": "uint256"
        },
        {
          "internalType": "address",
          "name": "owner",
          "type": "address"
        },
        {
          "internalType": "string",
          "name": "description",
          "type": "string"
        },
        {
          "internalType": "string",
          "name": "skills",
          "type": "string"
        },
        {
          "internalType": "string",
          "name": "location",
          "type": "string"
        },
        {
          "internalType": "string",
          "name": "jobType",
          "type": "string"
        },
        {
          "internalType": "bool",
          "name": "isJobVacant",
          "type": "bool"
        }
      ],
      "stateMutability": "view",
      "type": "function"
    },
    {
      "inputs": [
        {
          "internalType": "address",
          "name": "",
          "type": "address"
        }
      ],
      "name": "companyProfile",
      "outputs": [
        {
          "internalType": "string",
          "name": "companyImage",
          "type": "string"
        },
        {
          "internalType": "string",
          "name": "CompanyName",
          "type": "string"
        },
        {
          "internalType": "string",
          "name": "Category",
          "type": "string"
        },
        {
          "internalType": "address",
          "name": "owner",
          "type": "address"
        },
        {
          "internalType": "string",
          "name": "description",
          "type": "string"
        },
        {
          "internalType": "string",
          "name": "location",
          "type": "string"
        },
        {
          "internalType": "string",
          "name": "jobType",
          "type": "string"
        }
      ],
      "stateMutability": "view",
      "type": "function"
    },
    {
      "inputs": [
        {
          "internalType": "string",
          "name": "_name",
          "type": "string"
        },
        {
          "internalType": "address",
          "name": "_owner",
          "type": "address"
        },
        {
          "internalType": "string",
          "name": "_skills",
          "type": "string"
        },
        {
          "internalType": "uint256",
          "name": "_experience",
          "type": "uint256"
        },
        {
          "internalType": "uint256",
          "name": "_salaryExpectation",
          "type": "uint256"
        },
        {
          "internalType": "string",
          "name": "_description",
          "type": "string"
        },
        {
          "internalType": "string",
          "name": "_profileImage",
          "type": "string"
        },
        {
          "internalType": "string",
          "name": "_githubLink",
          "type": "string"
        }
      ],
      "name": "createAnAccount",
      "outputs": [
        {
          "internalType": "uint256",
          "name": "",
          "type": "uint256"
        }
      ],
      "stateMutability": "nonpayable",
      "type": "function"
    },
    {
      "inputs": [
        {
          "internalType": "string",
          "name": "_CompanyName",
          "type": "string"
        },
        {
          "internalType": "string",
          "name": "_Category",
          "type": "string"
        },
        {
          "internalType": "address",
          "name": "_owner",
          "type": "address"
        },
        {
          "internalType": "string",
          "name": "_description",
          "type": "string"
        },
        {
          "internalType": "string",
          "name": "_location",
          "type": "string"
        }
      ],
      "name": "createEmployerAccount",
      "outputs": [],
      "stateMutability": "nonpayable",
      "type": "function"
    },
    {
      "inputs": [],
      "name": "employerCounter",
      "outputs": [
        {
          "internalType": "uint256",
          "name": "",
          "type": "uint256"
        }
      ],
      "stateMutability": "view",
      "type": "function"
    },
    {
      "inputs": [],
      "name": "getAllAccount",
      "outputs": [
        {
          "components": [
            {
              "internalType": "string",
              "name": "name",
              "type": "string"
            },
            {
              "internalType": "address",
              "name": "ownerUser",
              "type": "address"
            },
            {
              "internalType": "string",
              "name": "skills",
              "type": "string"
            },
            {
              "internalType": "uint256",
              "name": "experience",
              "type": "uint256"
            },
            {
              "internalType": "uint256",
              "name": "salaryExpectation",
              "type": "uint256"
            },
            {
              "internalType": "string",
              "name": "description",
              "type": "string"
            },
            {
              "internalType": "string",
              "name": "profileImage",
              "type": "string"
            },
            {
              "internalType": "string",
              "name": "githubLink",
              "type": "string"
            }
          ],
          "internalType": "struct CareerBuild.Candidate[]",
          "name": "",
          "type": "tuple[]"
        }
      ],
      "stateMutability": "view",
      "type": "function"
    },
    {
      "inputs": [],
      "name": "getAllApplicant",
      "outputs": [
        {
          "components": [
            {
              "internalType": "string",
              "name": "name",
              "type": "string"
            },
            {
              "internalType": "address",
              "name": "candidateAddress",
              "type": "address"
            },
            {
              "internalType": "string",
              "name": "coverLetter",
              "type": "string"
            },
            {
              "internalType": "string",
              "name": "resume",
              "type": "string"
            },
            {
              "internalType": "string",
              "name": "portfolioLink",
              "type": "string"
            }
          ],
          "internalType": "struct CareerBuild.applyJob[]",
          "name": "",
          "type": "tuple[]"
        }
      ],
      "stateMutability": "view",
      "type": "function"
    },
    {
      "inputs": [],
      "name": "getAllEmployers",
      "outputs": [
        {
          "components": [
            {
              "internalType": "string",
              "name": "companyImage",
              "type": "string"
            },
            {
              "internalType": "string",
              "name": "CompanyName",
              "type": "string"
            },
            {
              "internalType": "string",
              "name": "Category",
              "type": "string"
            },
            {
              "internalType": "address",
              "name": "owner",
              "type": "address"
            },
            {
              "internalType": "string",
              "name": "description",
              "type": "string"
            },
            {
              "internalType": "string",
              "name": "location",
              "type": "string"
            },
            {
              "internalType": "string",
              "name": "jobType",
              "type": "string"
            }
          ],
          "internalType": "struct CareerBuild.employer[]",
          "name": "",
          "type": "tuple[]"
        }
      ],
      "stateMutability": "view",
      "type": "function"
    },
    {
      "inputs": [],
      "name": "getAllJob",
      "outputs": [
        {
          "components": [
            {
              "internalType": "string",
              "name": "CompanyName",
              "type": "string"
            },
            {
              "internalType": "string",
              "name": "companyImage",
              "type": "string"
            },
            {
              "internalType": "string",
              "name": "Category",
              "type": "string"
            },
            {
              "internalType": "uint256",
              "name": "salary",
              "type": "uint256"
            },
            {
              "internalType": "uint256",
              "name": "timeStamp",
              "type": "uint256"
            },
            {
              "internalType": "uint256",
              "name": "noAppllicant",
              "type": "uint256"
            },
            {
              "internalType": "address",
              "name": "owner",
              "type": "address"
            },
            {
              "internalType": "string",
              "name": "description",
              "type": "string"
            },
            {
              "internalType": "string",
              "name": "skills",
              "type": "string"
            },
            {
              "internalType": "string",
              "name": "location",
              "type": "string"
            },
            {
              "internalType": "string",
              "name": "jobType",
              "type": "string"
            },
            {
              "internalType": "bool",
              "name": "isJobVacant",
              "type": "bool"
            },
            {
              "internalType": "address[]",
              "name": "applicants",
              "type": "address[]"
            }
          ],
          "internalType": "struct CareerBuild.Jobs[]",
          "name": "",
          "type": "tuple[]"
        }
      ],
      "stateMutability": "view",
      "type": "function"
    },
    {
      "inputs": [
        {
          "internalType": "uint256",
          "name": "_id",
          "type": "uint256"
        }
      ],
      "name": "getApplicants",
      "outputs": [
        {
          "internalType": "address[]",
          "name": "",
          "type": "address[]"
        }
      ],
      "stateMutability": "view",
      "type": "function"
    },
    {
      "inputs": [
        {
          "internalType": "address",
          "name": "",
          "type": "address"
        },
        {
          "internalType": "uint256",
          "name": "",
          "type": "uint256"
        }
      ],
      "name": "jmap",
      "outputs": [
        {
          "internalType": "string",
          "name": "CompanyName",
          "type": "string"
        },
        {
          "internalType": "string",
          "name": "companyImage",
          "type": "string"
        },
        {
          "internalType": "string",
          "name": "Category",
          "type": "string"
        },
        {
          "internalType": "uint256",
          "name": "salary",
          "type": "uint256"
        },
        {
          "internalType": "uint256",
          "name": "timeStamp",
          "type": "uint256"
        },
        {
          "internalType": "uint256",
          "name": "noAppllicant",
          "type": "uint256"
        },
        {
          "internalType": "address",
          "name": "owner",
          "type": "address"
        },
        {
          "internalType": "string",
          "name": "description",
          "type": "string"
        },
        {
          "internalType": "string",
          "name": "skills",
          "type": "string"
        },
        {
          "internalType": "string",
          "name": "location",
          "type": "string"
        },
        {
          "internalType": "string",
          "name": "jobType",
          "type": "string"
        },
        {
          "internalType": "bool",
          "name": "isJobVacant",
          "type": "bool"
        }
      ],
      "stateMutability": "view",
      "type": "function"
    },
    {
      "inputs": [],
      "name": "jobCounter",
      "outputs": [
        {
          "internalType": "uint256",
          "name": "",
          "type": "uint256"
        }
      ],
      "stateMutability": "view",
      "type": "function"
    },
    {
      "inputs": [
        {
          "internalType": "uint256",
          "name": "_id",
          "type": "uint256"
        },
        {
          "internalType": "string",
          "name": "_CompanyName",
          "type": "string"
        },
        {
          "internalType": "string",
          "name": "_companyImage",
          "type": "string"
        },
        {
          "internalType": "string",
          "name": "_Category",
          "type": "string"
        },
        {
          "internalType": "uint256",
          "name": "_salary",
          "type": "uint256"
        },
        {
          "internalType": "string",
          "name": "_description",
          "type": "string"
        },
        {
          "internalType": "string",
          "name": "_skills",
          "type": "string"
        },
        {
          "internalType": "string",
          "name": "_location",
          "type": "string"
        },
        {
          "internalType": "string",
          "name": "_jobType",
          "type": "string"
        },
        {
          "internalType": "uint256",
          "name": "_price",
          "type": "uint256"
        }
      ],
      "name": "listAJob",
      "outputs": [
        {
          "internalType": "uint256",
          "name": "",
          "type": "uint256"
        }
      ],
      "stateMutability": "payable",
      "type": "function"
    },
    {
      "inputs": [
        {
          "internalType": "address",
          "name": "",
          "type": "address"
        }
      ],
      "name": "listApplicant",
      "outputs": [
        {
          "internalType": "string",
          "name": "name",
          "type": "string"
        },
        {
          "internalType": "address",
          "name": "candidateAddress",
          "type": "address"
        },
        {
          "internalType": "string",
          "name": "coverLetter",
          "type": "string"
        },
        {
          "internalType": "string",
          "name": "resume",
          "type": "string"
        },
        {
          "internalType": "string",
          "name": "portfolioLink",
          "type": "string"
        }
      ],
      "stateMutability": "view",
      "type": "function"
    },
    {
      "inputs": [
        {
          "internalType": "address",
          "name": "",
          "type": "address"
        }
      ],
      "name": "profile",
      "outputs": [
        {
          "internalType": "string",
          "name": "name",
          "type": "string"
        },
        {
          "internalType": "address",
          "name": "ownerUser",
          "type": "address"
        },
        {
          "internalType": "string",
          "name": "skills",
          "type": "string"
        },
        {
          "internalType": "uint256",
          "name": "experience",
          "type": "uint256"
        },
        {
          "internalType": "uint256",
          "name": "salaryExpectation",
          "type": "uint256"
        },
        {
          "internalType": "string",
          "name": "description",
          "type": "string"
        },
        {
          "internalType": "string",
          "name": "profileImage",
          "type": "string"
        },
        {
          "internalType": "string",
          "name": "githubLink",
          "type": "string"
        }
      ],
      "stateMutability": "view",
      "type": "function"
    },
    {
      "inputs": [
        {
          "internalType": "uint256",
          "name": "_id",
          "type": "uint256"
        }
      ],
      "name": "setJobToClosed",
      "outputs": [],
      "stateMutability": "nonpayable",
      "type": "function"
    },
    {
      "inputs": [
        {
          "internalType": "uint256",
          "name": "option",
          "type": "uint256"
        },
        {
          "internalType": "string",
          "name": "_data",
          "type": "string"
        },
        {
          "internalType": "uint256",
          "name": "_dataInteger",
          "type": "uint256"
        }
      ],
      "name": "updateAnAccount",
      "outputs": [
        {
          "components": [
            {
              "internalType": "string",
              "name": "name",
              "type": "string"
            },
            {
              "internalType": "address",
              "name": "ownerUser",
              "type": "address"
            },
            {
              "internalType": "string",
              "name": "skills",
              "type": "string"
            },
            {
              "internalType": "uint256",
              "name": "experience",
              "type": "uint256"
            },
            {
              "internalType": "uint256",
              "name": "salaryExpectation",
              "type": "uint256"
            },
            {
              "internalType": "string",
              "name": "description",
              "type": "string"
            },
            {
              "internalType": "string",
              "name": "profileImage",
              "type": "string"
            },
            {
              "internalType": "string",
              "name": "githubLink",
              "type": "string"
            }
          ],
          "internalType": "struct CareerBuild.Candidate",
          "name": "",
          "type": "tuple"
        }
      ],
      "stateMutability": "nonpayable",
      "type": "function"
    },
    {
      "inputs": [
        {
          "internalType": "uint256",
          "name": "option",
          "type": "uint256"
        },
        {
          "internalType": "string",
          "name": "_data",
          "type": "string"
        }
      ],
      "name": "updateEmployerAccount",
      "outputs": [
        {
          "components": [
            {
              "internalType": "string",
              "name": "companyImage",
              "type": "string"
            },
            {
              "internalType": "string",
              "name": "CompanyName",
              "type": "string"
            },
            {
              "internalType": "string",
              "name": "Category",
              "type": "string"
            },
            {
              "internalType": "address",
              "name": "owner",
              "type": "address"
            },
            {
              "internalType": "string",
              "name": "description",
              "type": "string"
            },
            {
              "internalType": "string",
              "name": "location",
              "type": "string"
            },
            {
              "internalType": "string",
              "name": "jobType",
              "type": "string"
            }
          ],
          "internalType": "struct CareerBuild.employer",
          "name": "",
          "type": "tuple"
        }
      ],
      "stateMutability": "nonpayable",
      "type": "function"
    },
    {
      "inputs": [
        {
          "internalType": "uint256",
          "name": "_newPrice",
          "type": "uint256"
        }
      ],
      "name": "updateListingPrice",
      "outputs": [
        {
          "internalType": "string",
          "name": "",
          "type": "string"
        }
      ],
      "stateMutability": "nonpayable",
      "type": "function"
    }
  ],
  "bytecode": "0x608060405234801561001057600080fd5b50600080546001600160a01b03191673013166d598ab78a8ddf8c1bf34ff9bc7c50d36d21790556144e8806100466000396000f3fe6080604052600436106101405760003560e01c80638b01ab06116100b6578063d3ee21571161006f578063d3ee2157146103c8578063eacebba3146103e8578063f014bad214610420578063f1efdf6a14610440578063f4f0424d14610462578063f53d0a8e1461047557600080fd5b80638b01ab06146102f95780639dc5368d1461030f5780639dd9d0fd14610331578063a6e7997514610365578063ae677aa31461037b578063cd646f6e146103a857600080fd5b806340768af41161010857806340768af41461021457806342bb59201461023457806346064baa1461026157806350355d76146102925780636cf5d86e146102b657806388e687ea146102e357600080fd5b8063120537331461014557806314c671d61461018157806317ff8856146101a357806319aab0d7146101c557806326adbca5146101e7575b600080fd5b34801561015157600080fd5b506101656101603660046136f1565b6104ad565b6040516101789796959493929190613760565b60405180910390f35b34801561018d57600080fd5b50610196610826565b60405161017891906138a3565b3480156101af57600080fd5b506101c36101be3660046139a8565b610c08565b005b3480156101d157600080fd5b506101da610dfb565b6040516101789190613a66565b3480156101f357600080fd5b50610207610202366004613b38565b6110b0565b6040516101789190613b7f565b34801561022057600080fd5b506101c361022f366004613b92565b611620565b34801561024057600080fd5b5061025461024f366004613bab565b6116ad565b6040516101789190613ca8565b34801561026d57600080fd5b5061028161027c3660046136f1565b611bea565b604051610178959493929190613cbb565b34801561029e57600080fd5b506102a860015481565b604051908152602001610178565b3480156102c257600080fd5b506102d66102d1366004613b92565b611e47565b6040516101789190613d67565b3480156102ef57600080fd5b506102a860045481565b34801561030557600080fd5b506102a860025481565b34801561031b57600080fd5b50610324611eb6565b6040516101789190613d7a565b34801561033d57600080fd5b5061035161034c3660046136f1565b612212565b604051610178989796959493929190613dcf565b34801561037157600080fd5b506102a860035481565b34801561038757600080fd5b5061039b610396366004613b92565b612509565b6040516101789190613e5d565b3480156103b457600080fd5b506102a86103c3366004613e70565b61256d565b3480156103d457600080fd5b506102a86103e3366004613f66565b612776565b3480156103f457600080fd5b50610408610403366004613b92565b612929565b6040516101789c9b9a9998979695949392919061402c565b34801561042c57600080fd5b5061040861043b366004614104565b612d4a565b34801561044c57600080fd5b50610455612d70565b604051610178919061412e565b6102a8610470366004614296565b613268565b34801561048157600080fd5b50600054610495906001600160a01b031681565b6040516001600160a01b039091168152602001610178565b6006602052600090815260409020805481906104c8906143d0565b80601f01602080910402602001604051908101604052809291908181526020018280546104f4906143d0565b80156105415780601f1061051657610100808354040283529160200191610541565b820191906000526020600020905b81548152906001019060200180831161052457829003601f168201915b505050505090806001018054610556906143d0565b80601f0160208091040260200160405190810160405280929190818152602001828054610582906143d0565b80156105cf5780601f106105a4576101008083540402835291602001916105cf565b820191906000526020600020905b8154815290600101906020018083116105b257829003601f168201915b5050505050908060020180546105e4906143d0565b80601f0160208091040260200160405190810160405280929190818152602001828054610610906143d0565b801561065d5780601f106106325761010080835404028352916020019161065d565b820191906000526020600020905b81548152906001019060200180831161064057829003601f168201915b505050600384015460048501805494956001600160a01b03909216949193509150610687906143d0565b80601f01602080910402602001604051908101604052809291908181526020018280546106b3906143d0565b80156107005780601f106106d557610100808354040283529160200191610700565b820191906000526020600020905b8154815290600101906020018083116106e357829003601f168201915b505050505090806005018054610715906143d0565b80601f0160208091040260200160405190810160405280929190818152602001828054610741906143d0565b801561078e5780601f106107635761010080835404028352916020019161078e565b820191906000526020600020905b81548152906001019060200180831161077157829003601f168201915b5050505050908060060180546107a3906143d0565b80601f01602080910402602001604051908101604052809291908181526020018280546107cf906143d0565b801561081c5780601f106107f15761010080835404028352916020019161081c565b820191906000526020600020905b8154815290600101906020018083116107ff57829003601f168201915b5050505050905087565b6060600b805480602002602001604051908101604052809291908181526020016000905b82821015610bff57838290600052602060002090600702016040518060e001604052908160008201805461087d906143d0565b80601f01602080910402602001604051908101604052809291908181526020018280546108a9906143d0565b80156108f65780601f106108cb576101008083540402835291602001916108f6565b820191906000526020600020905b8154815290600101906020018083116108d957829003601f168201915b5050505050815260200160018201805461090f906143d0565b80601f016020809104026020016040519081016040528092919081815260200182805461093b906143d0565b80156109885780601f1061095d57610100808354040283529160200191610988565b820191906000526020600020905b81548152906001019060200180831161096b57829003601f168201915b505050505081526020016002820180546109a1906143d0565b80601f01602080910402602001604051908101604052809291908181526020018280546109cd906143d0565b8015610a1a5780601f106109ef57610100808354040283529160200191610a1a565b820191906000526020600020905b8154815290600101906020018083116109fd57829003601f168201915b505050918352505060038201546001600160a01b03166020820152600482018054604090920191610a4a906143d0565b80601f0160208091040260200160405190810160405280929190818152602001828054610a76906143d0565b8015610ac35780601f10610a9857610100808354040283529160200191610ac3565b820191906000526020600020905b815481529060010190602001808311610aa657829003601f168201915b50505050508152602001600582018054610adc906143d0565b80601f0160208091040260200160405190810160405280929190818152602001828054610b08906143d0565b8015610b555780601f10610b2a57610100808354040283529160200191610b55565b820191906000526020600020905b815481529060010190602001808311610b3857829003601f168201915b50505050508152602001600682018054610b6e906143d0565b80601f0160208091040260200160405190810160405280929190818152602001828054610b9a906143d0565b8015610be75780601f10610bbc57610100808354040283529160200191610be7565b820191906000526020600020905b815481529060010190602001808311610bca57829003601f168201915b5050505050815250508152602001906001019061084a565b50505050905090565b6000546001600160a01b0316331415610c3c5760405162461bcd60e51b8152600401610c339061440b565b60405180910390fd5b6001600160a01b038316600090815260066020908152604090912086519091610c6c916001840191890190613587565b506003810180546001600160a01b031916331790558451610c969060028301906020880190613587565b508251610cac9060048301906020860190613587565b508151610cc29060058301906020850190613587565b5060028054906000610cd383614442565b9091555050600b8054600181018255600091909152815482916007027f0175b7a638427703f0dbe7bb9bbf987a2551717b34e79f33b5b1008d1fa01db9019081908390610d1f906143d0565b610d2a92919061360b565b506001820181600101908054610d3f906143d0565b610d4a92919061360b565b506002820181600201908054610d5f906143d0565b610d6a92919061360b565b5060038281015490820180546001600160a01b0319166001600160a01b039092169190911790556004808301805491830191610da5906143d0565b610db092919061360b565b506005820181600501908054610dc5906143d0565b610dd092919061360b565b506006820181600601908054610de5906143d0565b610df092919061360b565b505050505050505050565b6060600d805480602002602001604051908101604052809291908181526020016000905b82821015610bff57838290600052602060002090600502016040518060a0016040529081600082018054610e52906143d0565b80601f0160208091040260200160405190810160405280929190818152602001828054610e7e906143d0565b8015610ecb5780601f10610ea057610100808354040283529160200191610ecb565b820191906000526020600020905b815481529060010190602001808311610eae57829003601f168201915b505050918352505060018201546001600160a01b03166020820152600282018054604090920191610efb906143d0565b80601f0160208091040260200160405190810160405280929190818152602001828054610f27906143d0565b8015610f745780601f10610f4957610100808354040283529160200191610f74565b820191906000526020600020905b815481529060010190602001808311610f5757829003601f168201915b50505050508152602001600382018054610f8d906143d0565b80601f0160208091040260200160405190810160405280929190818152602001828054610fb9906143d0565b80156110065780601f10610fdb57610100808354040283529160200191611006565b820191906000526020600020905b815481529060010190602001808311610fe957829003601f168201915b5050505050815260200160048201805461101f906143d0565b80601f016020809104026020016040519081016040528092919081815260200182805461104b906143d0565b80156110985780601f1061106d57610100808354040283529160200191611098565b820191906000526020600020905b81548152906001019060200180831161107b57829003601f168201915b50505050508152505081526020019060010190610e1f565b6110f96040518060e0016040528060608152602001606081526020016060815260200160006001600160a01b031681526020016060815260200160608152602001606081525090565b336000818152600660205260409020600301546001600160a01b0316146111325760405162461bcd60e51b8152600401610c339061446b565b6000546001600160a01b031633141561115d5760405162461bcd60e51b8152600401610c339061440b565b336000818152600660205260409020600301546001600160a01b0316146111965760405162461bcd60e51b8152600401610c339061446b565b826111c75733600090815260066020908152604090912083516111c192600190920191850190613587565b5061127c565b82600214156111f65733600090815260066020908152604090912083516111c192600290920191850190613587565b82600314156112255733600090815260066020908152604090912083516111c192600490920191850190613587565b82600414156112545733600090815260066020908152604090912083516111c192600590920191850190613587565b336000908152600660208181526040909220845161127a93919092019190850190613587565b505b3360009081526006602052604090819020815160e081019092528054829082906112a5906143d0565b80601f01602080910402602001604051908101604052809291908181526020018280546112d1906143d0565b801561131e5780601f106112f35761010080835404028352916020019161131e565b820191906000526020600020905b81548152906001019060200180831161130157829003601f168201915b50505050508152602001600182018054611337906143d0565b80601f0160208091040260200160405190810160405280929190818152602001828054611363906143d0565b80156113b05780601f10611385576101008083540402835291602001916113b0565b820191906000526020600020905b81548152906001019060200180831161139357829003601f168201915b505050505081526020016002820180546113c9906143d0565b80601f01602080910402602001604051908101604052809291908181526020018280546113f5906143d0565b80156114425780601f1061141757610100808354040283529160200191611442565b820191906000526020600020905b81548152906001019060200180831161142557829003601f168201915b505050918352505060038201546001600160a01b03166020820152600482018054604090920191611472906143d0565b80601f016020809104026020016040519081016040528092919081815260200182805461149e906143d0565b80156114eb5780601f106114c0576101008083540402835291602001916114eb565b820191906000526020600020905b8154815290600101906020018083116114ce57829003601f168201915b50505050508152602001600582018054611504906143d0565b80601f0160208091040260200160405190810160405280929190818152602001828054611530906143d0565b801561157d5780601f106115525761010080835404028352916020019161157d565b820191906000526020600020905b81548152906001019060200180831161156057829003601f168201915b50505050508152602001600682018054611596906143d0565b80601f01602080910402602001604051908101604052809291908181526020018280546115c2906143d0565b801561160f5780601f106115e45761010080835404028352916020019161160f565b820191906000526020600020905b8154815290600101906020018083116115f257829003601f168201915b505050505081525050905092915050565b336000818152600660205260409020600301546001600160a01b0316146116595760405162461bcd60e51b8152600401610c339061446b565b336000818152600660205260409020600301546001600160a01b0316146116925760405162461bcd60e51b8152600401610c339061446b565b6000908152600760205260409020600b01805460ff19169055565b6116fe6040518061010001604052806060815260200160006001600160a01b031681526020016060815260200160008152602001600081526020016060815260200160608152602001606081525090565b6000546001600160a01b03163314156117295760405162461bcd60e51b8152600401610c339061440b565b336000818152600660205260409020600301546001600160a01b031614156117635760405162461bcd60e51b8152600401610c339061446b565b336000818152600560205260409020600101546001600160a01b03161461179c5760405162461bcd60e51b8152600401610c339061446b565b836117c75733600090815260056020908152604090912084516117c192860190613587565b506118c2565b83600214156117f65733600090815260056020908152604090912084516117c192600290920191860190613587565b8360031415611819573360009081526005602052604090206003018290556118c2565b836004141561183c573360009081526005602052604090206004018290556118c2565b836005141561186b5733600090815260056020818152604090922085516117c193919092019190860190613587565b836006141561189a5733600090815260056020908152604090912084516117c192600690920191860190613587565b33600090815260056020908152604090912084516118c092600790920191860190613587565b505b3360009081526005602052604090819020815161010081019092528054829082906118ec906143d0565b80601f0160208091040260200160405190810160405280929190818152602001828054611918906143d0565b80156119655780601f1061193a57610100808354040283529160200191611965565b820191906000526020600020905b81548152906001019060200180831161194857829003601f168201915b505050918352505060018201546001600160a01b03166020820152600282018054604090920191611995906143d0565b80601f01602080910402602001604051908101604052809291908181526020018280546119c1906143d0565b8015611a0e5780601f106119e357610100808354040283529160200191611a0e565b820191906000526020600020905b8154815290600101906020018083116119f157829003601f168201915b505050505081526020016003820154815260200160048201548152602001600582018054611a3b906143d0565b80601f0160208091040260200160405190810160405280929190818152602001828054611a67906143d0565b8015611ab45780601f10611a8957610100808354040283529160200191611ab4565b820191906000526020600020905b815481529060010190602001808311611a9757829003601f168201915b50505050508152602001600682018054611acd906143d0565b80601f0160208091040260200160405190810160405280929190818152602001828054611af9906143d0565b8015611b465780601f10611b1b57610100808354040283529160200191611b46565b820191906000526020600020905b815481529060010190602001808311611b2957829003601f168201915b50505050508152602001600782018054611b5f906143d0565b80601f0160208091040260200160405190810160405280929190818152602001828054611b8b906143d0565b8015611bd85780601f10611bad57610100808354040283529160200191611bd8565b820191906000526020600020905b815481529060010190602001808311611bbb57829003601f168201915b50505050508152505090509392505050565b600860205260009081526040902080548190611c05906143d0565b80601f0160208091040260200160405190810160405280929190818152602001828054611c31906143d0565b8015611c7e5780601f10611c5357610100808354040283529160200191611c7e565b820191906000526020600020905b815481529060010190602001808311611c6157829003601f168201915b505050600184015460028501805494956001600160a01b03909216949193509150611ca8906143d0565b80601f0160208091040260200160405190810160405280929190818152602001828054611cd4906143d0565b8015611d215780601f10611cf657610100808354040283529160200191611d21565b820191906000526020600020905b815481529060010190602001808311611d0457829003601f168201915b505050505090806003018054611d36906143d0565b80601f0160208091040260200160405190810160405280929190818152602001828054611d62906143d0565b8015611daf5780601f10611d8457610100808354040283529160200191611daf565b820191906000526020600020905b815481529060010190602001808311611d9257829003601f168201915b505050505090806004018054611dc4906143d0565b80601f0160208091040260200160405190810160405280929190818152602001828054611df0906143d0565b8015611e3d5780601f10611e1257610100808354040283529160200191611e3d565b820191906000526020600020905b815481529060010190602001808311611e2057829003601f168201915b5050505050905085565b600081815260076020908152604091829020600c01805483518184028101840190945280845260609392830182828015611eaa57602002820191906000526020600020905b81546001600160a01b03168152600190910190602001808311611e8c575b50505050509050919050565b6060600a805480602002602001604051908101604052809291908181526020016000905b82821015610bff578382906000526020600020906008020160405180610100016040529081600082018054611f0e906143d0565b80601f0160208091040260200160405190810160405280929190818152602001828054611f3a906143d0565b8015611f875780601f10611f5c57610100808354040283529160200191611f87565b820191906000526020600020905b815481529060010190602001808311611f6a57829003601f168201915b505050918352505060018201546001600160a01b03166020820152600282018054604090920191611fb7906143d0565b80601f0160208091040260200160405190810160405280929190818152602001828054611fe3906143d0565b80156120305780601f1061200557610100808354040283529160200191612030565b820191906000526020600020905b81548152906001019060200180831161201357829003601f168201915b50505050508152602001600382015481526020016004820154815260200160058201805461205d906143d0565b80601f0160208091040260200160405190810160405280929190818152602001828054612089906143d0565b80156120d65780601f106120ab576101008083540402835291602001916120d6565b820191906000526020600020905b8154815290600101906020018083116120b957829003601f168201915b505050505081526020016006820180546120ef906143d0565b80601f016020809104026020016040519081016040528092919081815260200182805461211b906143d0565b80156121685780601f1061213d57610100808354040283529160200191612168565b820191906000526020600020905b81548152906001019060200180831161214b57829003601f168201915b50505050508152602001600782018054612181906143d0565b80601f01602080910402602001604051908101604052809291908181526020018280546121ad906143d0565b80156121fa5780601f106121cf576101008083540402835291602001916121fa565b820191906000526020600020905b8154815290600101906020018083116121dd57829003601f168201915b50505050508152505081526020019060010190611eda565b60056020526000908152604090208054819061222d906143d0565b80601f0160208091040260200160405190810160405280929190818152602001828054612259906143d0565b80156122a65780601f1061227b576101008083540402835291602001916122a6565b820191906000526020600020905b81548152906001019060200180831161228957829003601f168201915b505050600184015460028501805494956001600160a01b039092169491935091506122d0906143d0565b80601f01602080910402602001604051908101604052809291908181526020018280546122fc906143d0565b80156123495780601f1061231e57610100808354040283529160200191612349565b820191906000526020600020905b81548152906001019060200180831161232c57829003601f168201915b50505050509080600301549080600401549080600501805461236a906143d0565b80601f0160208091040260200160405190810160405280929190818152602001828054612396906143d0565b80156123e35780601f106123b8576101008083540402835291602001916123e3565b820191906000526020600020905b8154815290600101906020018083116123c657829003601f168201915b5050505050908060060180546123f8906143d0565b80601f0160208091040260200160405190810160405280929190818152602001828054612424906143d0565b80156124715780601f1061244657610100808354040283529160200191612471565b820191906000526020600020905b81548152906001019060200180831161245457829003601f168201915b505050505090806007018054612486906143d0565b80601f01602080910402602001604051908101604052809291908181526020018280546124b2906143d0565b80156124ff5780601f106124d4576101008083540402835291602001916124ff565b820191906000526020600020905b8154815290600101906020018083116124e257829003601f168201915b5050505050905088565b6000546060906001600160a01b031633146125365760405162461bcd60e51b8152600401610c339061446b565b50600e8190556040805180820190915260148152737072696365207570646174656420746f206e657760601b60208201525b919050565b600080546001600160a01b03163314156125995760405162461bcd60e51b8152600401610c339061440b565b6001600160a01b03881660009081526005602090815260409091208a5190916125c69183918d0190613587565b506001810180546001600160a01b0319163317905587516125f090600283019060208b0190613587565b50600381018790556004810186905584516126149060058301906020880190613587565b50835161262a9060068301906020870190613587565b5082516126409060078301906020860190613587565b506003805490600061265183614442565b9091555050600a8054600181018255600091909152815482916008027fc65a7bb8d6351c1cf70c95a316cc6a92839c986682d98bc35f958f4883f9d2a801908190839061269d906143d0565b6126a892919061360b565b5060018281015490820180546001600160a01b0319166001600160a01b0390921691909117905560028083018054918301916126e3906143d0565b6126ee92919061360b565b5060038201548160030155600482015481600401556005820181600501908054612717906143d0565b61272292919061360b565b506006820181600601908054612737906143d0565b61274292919061360b565b506007820181600701908054612757906143d0565b61276292919061360b565b50506003549b9a5050505050505050505050565b6000868152600760209081526040808320600c810180546001810182559085528385200180546001600160a01b031916331790556001600160a01b0385168452600883529083208851919290916127d2918391908b0190613587565b5086516127e890600283019060208a0190613587565b5085516127fe9060038301906020890190613587565b5084516128149060048301906020880190613587565b506001810180546001600160a01b031916331790556004805490600061283983614442565b9091555050600d8054600181018255600091909152815482916005027fd7b6990105719101dabeb77144f2a3385c8033acd3af97e9423a695e81ad1eb5019081908390612885906143d0565b61289092919061360b565b5060018281015490820180546001600160a01b0319166001600160a01b0390921691909117905560028083018054918301916128cb906143d0565b6128d692919061360b565b5060038201816003019080546128eb906143d0565b6128f692919061360b565b50600482018160040190805461290b906143d0565b61291692919061360b565b50506004549a9950505050505050505050565b600760205260009081526040902080548190612944906143d0565b80601f0160208091040260200160405190810160405280929190818152602001828054612970906143d0565b80156129bd5780601f10612992576101008083540402835291602001916129bd565b820191906000526020600020905b8154815290600101906020018083116129a057829003601f168201915b5050505050908060010180546129d2906143d0565b80601f01602080910402602001604051908101604052809291908181526020018280546129fe906143d0565b8015612a4b5780601f10612a2057610100808354040283529160200191612a4b565b820191906000526020600020905b815481529060010190602001808311612a2e57829003601f168201915b505050505090806002018054612a60906143d0565b80601f0160208091040260200160405190810160405280929190818152602001828054612a8c906143d0565b8015612ad95780601f10612aae57610100808354040283529160200191612ad9565b820191906000526020600020905b815481529060010190602001808311612abc57829003601f168201915b5050506003840154600485015460058601546006870154600788018054979894979396509194506001600160a01b03169291612b14906143d0565b80601f0160208091040260200160405190810160405280929190818152602001828054612b40906143d0565b8015612b8d5780601f10612b6257610100808354040283529160200191612b8d565b820191906000526020600020905b815481529060010190602001808311612b7057829003601f168201915b505050505090806008018054612ba2906143d0565b80601f0160208091040260200160405190810160405280929190818152602001828054612bce906143d0565b8015612c1b5780601f10612bf057610100808354040283529160200191612c1b565b820191906000526020600020905b815481529060010190602001808311612bfe57829003601f168201915b505050505090806009018054612c30906143d0565b80601f0160208091040260200160405190810160405280929190818152602001828054612c5c906143d0565b8015612ca95780601f10612c7e57610100808354040283529160200191612ca9565b820191906000526020600020905b815481529060010190602001808311612c8c57829003601f168201915b50505050509080600a018054612cbe906143d0565b80601f0160208091040260200160405190810160405280929190818152602001828054612cea906143d0565b8015612d375780601f10612d0c57610100808354040283529160200191612d37565b820191906000526020600020905b815481529060010190602001808311612d1a57829003601f168201915b505050600b909301549192505060ff168c565b6009602090815260009283526040808420909152908252902080548190612944906143d0565b6060600c805480602002602001604051908101604052809291908181526020016000905b82821015610bff57838290600052602060002090600d0201604051806101a0016040529081600082018054612dc8906143d0565b80601f0160208091040260200160405190810160405280929190818152602001828054612df4906143d0565b8015612e415780601f10612e1657610100808354040283529160200191612e41565b820191906000526020600020905b815481529060010190602001808311612e2457829003601f168201915b50505050508152602001600182018054612e5a906143d0565b80601f0160208091040260200160405190810160405280929190818152602001828054612e86906143d0565b8015612ed35780601f10612ea857610100808354040283529160200191612ed3565b820191906000526020600020905b815481529060010190602001808311612eb657829003601f168201915b50505050508152602001600282018054612eec906143d0565b80601f0160208091040260200160405190810160405280929190818152602001828054612f18906143d0565b8015612f655780601f10612f3a57610100808354040283529160200191612f65565b820191906000526020600020905b815481529060010190602001808311612f4857829003601f168201915b505050918352505060038201546020820152600482015460408201526005820154606082015260068201546001600160a01b0316608082015260078201805460a090920191612fb3906143d0565b80601f0160208091040260200160405190810160405280929190818152602001828054612fdf906143d0565b801561302c5780601f106130015761010080835404028352916020019161302c565b820191906000526020600020905b81548152906001019060200180831161300f57829003601f168201915b50505050508152602001600882018054613045906143d0565b80601f0160208091040260200160405190810160405280929190818152602001828054613071906143d0565b80156130be5780601f10613093576101008083540402835291602001916130be565b820191906000526020600020905b8154815290600101906020018083116130a157829003601f168201915b505050505081526020016009820180546130d7906143d0565b80601f0160208091040260200160405190810160405280929190818152602001828054613103906143d0565b80156131505780601f1061312557610100808354040283529160200191613150565b820191906000526020600020905b81548152906001019060200180831161313357829003601f168201915b50505050508152602001600a82018054613169906143d0565b80601f0160208091040260200160405190810160405280929190818152602001828054613195906143d0565b80156131e25780601f106131b7576101008083540402835291602001916131e2565b820191906000526020600020905b8154815290600101906020018083116131c557829003601f168201915b5050509183525050600b82015460ff161515602080830191909152600c83018054604080518285028101850182528281529401939283018282801561325057602002820191906000526020600020905b81546001600160a01b03168152600190910190602001808311613232575b50505050508152505081526020019060010190612d94565b6000600e5434146132c65760405162461bcd60e51b815260206004820152602260248201527f706c732073656e64207468652061736b696e6720707269636520696e206f726460448201526132b960f11b6064820152608401610c33565b600e82905560008b81526007602090815260409091208b5190916132ee9183918e0190613587565b50895161330490600183019060208d0190613587565b50885161331a90600283019060208c0190613587565b506003810188905542600480830191909155546005820155865161334790600783019060208a0190613587565b50855161335d9060088301906020890190613587565b5084516133739060098301906020880190613587565b50835161338990600a8301906020870190613587565b50600b8101805460ff1916600117905560008054600e546040516001600160a01b039092169281156108fc029290818181858888f193505050501580156133d4573d6000803e3d6000fd5b50600c805460018101825560009190915281548291600d027fdf6966c971051c3d54ec59162606531493a51404a002842f56009d7e5cf4a8c701908190839061341c906143d0565b61342792919061360b565b50600182018160010190805461343c906143d0565b61344792919061360b565b50600282018160020190805461345c906143d0565b61346792919061360b565b5060038281015490820155600480830154908201556005808301549082015560068083015490820180546001600160a01b0319166001600160a01b0390921691909117905560078083018054918301916134c0906143d0565b6134cb92919061360b565b5060088201816008019080546134e0906143d0565b6134eb92919061360b565b506009820181600901908054613500906143d0565b61350b92919061360b565b50600a820181600a01908054613520906143d0565b61352b92919061360b565b50600b82810154908201805460ff191660ff9092161515919091179055600c808301805461355c9284019190613686565b5050600180549150600061356f83614442565b90915550506001549c9b505050505050505050505050565b828054613593906143d0565b90600052602060002090601f0160209004810192826135b557600085556135fb565b82601f106135ce57805160ff19168380011785556135fb565b828001600101855582156135fb579182015b828111156135fb5782518255916020019190600101906135e0565b506136079291506136c5565b5090565b828054613617906143d0565b90600052602060002090601f01602090048101928261363957600085556135fb565b82601f1061364a57805485556135fb565b828001600101855582156135fb57600052602060002091601f016020900482015b828111156135fb57825482559160010191906001019061366b565b8280548282559060005260206000209081019282156135fb576000526020600020918201828111156135fb57825482559160010191906001019061366b565b5b8082111561360757600081556001016136c6565b80356001600160a01b038116811461256857600080fd5b60006020828403121561370357600080fd5b61370c826136da565b9392505050565b6000815180845260005b818110156137395760208185018101518683018201520161371d565b8181111561374b576000602083870101525b50601f01601f19169290920160200192915050565b60e08152600061377360e083018a613713565b8281036020840152613785818a613713565b905082810360408401526137998189613713565b6001600160a01b0388166060850152838103608085015290506137bc8187613713565b905082810360a08401526137d08186613713565b905082810360c08401526137e48185613713565b9a9950505050505050505050565b6000815160e0845261380760e0850182613713565b9050602083015184820360208601526138208282613713565b9150506040830151848203604086015261383a8282613713565b91505060018060a01b036060840151166060850152608083015184820360808601526138668282613713565b91505060a083015184820360a08601526138808282613713565b91505060c083015184820360c086015261389a8282613713565b95945050505050565b6000602080830181845280855180835260408601915060408160051b870101925083870160005b828110156138f857603f198886030184526138e68583516137f2565b945092850192908501906001016138ca565b5092979650505050505050565b634e487b7160e01b600052604160045260246000fd5b600082601f83011261392c57600080fd5b813567ffffffffffffffff8082111561394757613947613905565b604051601f8301601f19908116603f0116810190828211818310171561396f5761396f613905565b8160405283815286602085880101111561398857600080fd5b836020870160208301376000602085830101528094505050505092915050565b600080600080600060a086880312156139c057600080fd5b853567ffffffffffffffff808211156139d857600080fd5b6139e489838a0161391b565b965060208801359150808211156139fa57600080fd5b613a0689838a0161391b565b9550613a14604089016136da565b94506060880135915080821115613a2a57600080fd5b613a3689838a0161391b565b93506080880135915080821115613a4c57600080fd5b50613a598882890161391b565b9150509295509295909350565b60006020808301818452808551808352604092508286019150828160051b87010184880160005b83811015613b2a57603f19898403018552815160a08151818652613ab382870182613713565b838b01516001600160a01b0316878c0152898401518782038b8901529092509050613ade8282613713565b91505060608083015186830382880152613af88382613713565b9250505060808083015192508582038187015250613b168183613713565b968901969450505090860190600101613a8d565b509098975050505050505050565b60008060408385031215613b4b57600080fd5b82359150602083013567ffffffffffffffff811115613b6957600080fd5b613b758582860161391b565b9150509250929050565b60208152600061370c60208301846137f2565b600060208284031215613ba457600080fd5b5035919050565b600080600060608486031215613bc057600080fd5b83359250602084013567ffffffffffffffff811115613bde57600080fd5b613bea8682870161391b565b925050604084013590509250925092565b60006101008251818552613c1182860182613713565b9150506020830151613c2e60208601826001600160a01b03169052565b5060408301518482036040860152613c468282613713565b915050606083015160608501526080830151608085015260a083015184820360a0860152613c748282613713565b91505060c083015184820360c0860152613c8e8282613713565b91505060e083015184820360e086015261389a8282613713565b60208152600061370c6020830184613bfb565b60a081526000613cce60a0830188613713565b6001600160a01b03871660208401528281036040840152613cef8187613713565b90508281036060840152613d038186613713565b90508281036080840152613d178185613713565b98975050505050505050565b600081518084526020808501945080840160005b83811015613d5c5781516001600160a01b031687529582019590820190600101613d37565b509495945050505050565b60208152600061370c6020830184613d23565b6000602080830181845280855180835260408601915060408160051b870101925083870160005b828110156138f857603f19888603018452613dbd858351613bfb565b94509285019290850190600101613da1565b6000610100808352613de38184018c613713565b6001600160a01b038b16602085015283810360408501529050613e06818a613713565b905087606084015286608084015282810360a0840152613e268187613713565b905082810360c0840152613e3a8186613713565b905082810360e0840152613e4e8185613713565b9b9a5050505050505050505050565b60208152600061370c6020830184613713565b600080600080600080600080610100898b031215613e8d57600080fd5b883567ffffffffffffffff80821115613ea557600080fd5b613eb18c838d0161391b565b9950613ebf60208c016136da565b985060408b0135915080821115613ed557600080fd5b613ee18c838d0161391b565b975060608b0135965060808b0135955060a08b0135915080821115613f0557600080fd5b613f118c838d0161391b565b945060c08b0135915080821115613f2757600080fd5b613f338c838d0161391b565b935060e08b0135915080821115613f4957600080fd5b50613f568b828c0161391b565b9150509295985092959890939650565b60008060008060008060c08789031215613f7f57600080fd5b86359550602087013567ffffffffffffffff80821115613f9e57600080fd5b613faa8a838b0161391b565b96506040890135915080821115613fc057600080fd5b613fcc8a838b0161391b565b95506060890135915080821115613fe257600080fd5b613fee8a838b0161391b565b9450608089013591508082111561400457600080fd5b5061401189828a0161391b565b92505061402060a088016136da565b90509295509295509295565b6101808152600061404161018083018f613713565b8281036020840152614053818f613713565b90508281036040840152614067818e613713565b90508b60608401528a60808401528960a084015261409060c084018a6001600160a01b03169052565b82810360e08401526140a28189613713565b90508281036101008401526140b78188613713565b90508281036101208401526140cc8187613713565b90508281036101408401526140e18186613713565b9150506140f361016083018415159052565b9d9c50505050505050505050505050565b6000806040838503121561411757600080fd5b614120836136da565b946020939093013593505050565b60006020808301818452808551808352604092508286019150828160051b87010184880160005b83811015613b2a57603f1989840301855281516101a0815181865261417c82870182613713565b915050888201518582038a8701526141948282613713565b91505087820151858203898701526141ac8282613713565b606084810151908801526080808501519088015260a0808501519088015260c0808501516001600160a01b03169088015260e080850151888303828a015291935091506141f98382613713565b9250505061010080830151868303828801526142158382613713565b9250505061012080830151868303828801526142318382613713565b92505050610140808301518683038288015261424d8382613713565b92505050610160808301516142658288018215159052565b505061018080830151925085820381870152506142828183613d23565b968901969450505090860190600101614155565b6000806000806000806000806000806101408b8d0312156142b657600080fd5b8a35995060208b013567ffffffffffffffff808211156142d557600080fd5b6142e18e838f0161391b565b9a5060408d01359150808211156142f757600080fd5b6143038e838f0161391b565b995060608d013591508082111561431957600080fd5b6143258e838f0161391b565b985060808d0135975060a08d013591508082111561434257600080fd5b61434e8e838f0161391b565b965060c08d013591508082111561436457600080fd5b6143708e838f0161391b565b955060e08d013591508082111561438657600080fd5b6143928e838f0161391b565b94506101008d01359150808211156143a957600080fd5b506143b68d828e0161391b565b9250506101208b013590509295989b9194979a5092959850565b600181811c908216806143e457607f821691505b6020821081141561440557634e487b7160e01b600052602260045260246000fd5b50919050565b60208082526019908201527f41646d696e6973747261746f72206e6f7420616c6c6f77656400000000000000604082015260600190565b600060001982141561446457634e487b7160e01b600052601160045260246000fd5b5060010190565b60208082526027908201527f4f6e6c79206f776e657220697320616c6c6f77656420746f206368616e67652060408201526664657461696c7360c81b60608201526080019056fea2646970667358221220102b8739fee95ed3c340cfb01bfac4d34cfd5d9d2101798d6ec966a820d8562f64736f6c63430008090033",
  "linkReferences": {},
  "deployedLinkReferences": {}
}